:020000040800F2
:1000000050070020B5010008991C0008911C000849
:10001000951C000871020008C51D000800000000C2
:10002000000000000000000000000000A11C00080B
:1000300075020008000000009D1C0008A51C0008B7
:10004000CF010008CF010008CF010008CF01000850
:10005000CF010008CF010008CF010008CF01000840
:10006000CF010008CF010008CF010008CF01000830
:10007000CF010008CF010008CF010008CF01000820
:10008000CF010008CF010008CF010008CF01000810
:10009000CF010008CF010008CF010008CF01000800
:1000A000CF010008CF010008CF010008CF010008F0
:1000B000CF010008CF010008CF010008CF010008E0
:1000C000CF010008CF010008CF010008CF010008D0
:1000D000CF010008B91D0008CF010008CF010008BA
:1000E000CF010008CF010008CF01000800F002F89E
:1000F00000F050F814A696E8000CB244B344DA4578
:1001000001D100F047F8BAE80F000FA696E83000DA
:10011000A5EB040504EB0607AAEB0704A7F101070A
:100120004FEA15154FEA3414A4F10104AC4201D38F
:1001300000F030F813F0010F18BFFB1A43F0010371
:1001400000F001F8DBE7184788210000A821000033
:10015000103A24BF78C878C1FAD8520724BF30C8F3
:1001600030C144BF04680C60704700007047000055
:100170000023002400250026103A28BF78C1FBD8B0
:10018000520728BF30C148BF0B6070471FB51FBD65
:1001900010B510BD00F031F81146FFF7F7FF01F080
:1001A000A3FE00F04FF803B4FFF7F2FF03BC00F02A
:1001B00057F800000948804709480047FEE7FEE776
:1001C000FEE7FEE7FEE7FEE7FEE7FEE7FEE7FEE707
:1001D00004480549054A064B70470000A91C000861
:1001E000ED000008500100205007002050030020BF
:1001F00050030020704770477047754600F02CF898
:10020000AE4605006946534620F00700854618B003
:1002100020B5FFF7DDFFBDE820404FF000064FF0AE
:1002200000074FF000084FF0000BAC46ACE8C009E7
:10023000ACE8C009ACE8C009ACE8C00921F007018E
:100240008D46704710B50446AFF300802046BDE8E8
:100250001040FFF7A8BF00000048704710000020C2
:1002600001491820ABBEFEE72600020070470000DF
:10027000FEE7000070470000014690F821000228C8
:1002800016D10868D1E90FC3026822F00E0202609D
:10029000026822F001020260012000FA03F2CCF8A9
:1002A000042081F821000020002281F820207047DE
:1002B000042088630120002281F82020704700007C
:1002C00090F82110022923D1026840F2040C116831
:1002D000C4F2020C21F00E01116013682F21C4F248
:1002E00002018A4223F00103136015DD3023C4F2BA
:1002F00002039A421CD04423C4F202039A421BD048
:100300005823C4F202039A421CD14FF4803321E0F7
:1003100004218163012070470823C4F202039A423A
:100320000ED01C23C4F202039A420BD1102311E019
:100330004FF480730EE000BF4FF480530AE000BF1B
:10034000012307E00CF168014FF080738A4208BF77
:100350004FF480130121CCF8003080F82110416B5C
:100360000022002980F8202004BF0020704780B5BB
:100370008847002080BD00002DE9F04F82B00E6854
:10038000002E00F0FD8041F20042C4F2010204237D
:1003900040F2004E904208BF03234FF6FF7CC4F2A8
:1003A000010E009300240123C1F2100C4FF0000A4B
:1003B0004FF000094BE000BF41F20002C4F201021D
:1003C000009F904208BF022704F00C030F229A40BE
:1003D0002BEA020207FA03F34FEA9A051A4346F89A
:1003E00025204E6840F20C45F202DEF8082054BF8A
:1003F00022EA080242EA0802C4F20105CEF8082007
:100400002A68B30254BF22EA080242EA08022A60BC
:10041000B303DEF8042054BF22EA080242EA0802CD
:10042000F303CEF80420DEF800204FF0010354BFA0
:1004300022EA080242EA0802CEF800200E680AF119
:10044000010A36FA0AF204F1040400F0998003FA72
:100450000AFB16EA0B08F1D04E68664512DC122E34
:1004600056D8DFE806F0350B4D49555555555555CD
:100470005555555555555545510000BFD1F80C906F
:1004800046E000BF4FF6FF72C1F2210296420FDC38
:100490000022C1F2110296421AD00022C1F21202C9
:1004A000964215D00022C1F22102964210D02FE0D0
:1004B0000022C1F2220296420AD00022C1F2310289
:1004C000964205D00022C1F23202964220D100BFEE
:1004D0008A684AB1012A14BFC0F814B0C0F810B03D
:1004E0004FF0080914E000BF4FF0040910E000BF0E
:1004F000CA6802F104090BE04FF0000908E000BFF0
:10050000CA6802F1080903E0CA6802F10C0900BFD9
:1005100002462646B8F5807F24BF0432203E176885
:100520000F25B54027EA050509FA06F6354315609B
:10053000CA79D2067FF582AF41F21803C4F20203F2
:100540001A68AEF57E7642F001021A601A6802F06F
:1005500001020192019A2AF0030256F802B040F615
:100560000002C4F20102904208D040F60042C4F2F8
:10057000010290427FF420AF012725E7002723E7FF
:1005800002B0BDE8F08F00008068084018BF01206D
:1005900070470000002A08BF09040161704700008D
:1005A00040F24C10C2F200000068704740F20000B8
:1005B00040F24C11C2F20000C2F2000100780A6859
:1005C000104408607047000080B542F20000C4F299
:1005D0000200016841F010010160032000F08CF876
:1005E0000F2000F005F800F027F8002080BD000083
:1005F00070B540F20006C2F2000640F208013278FF
:10060000C2F200014FF47A730968B3FBF2F20446B8
:10061000B1FBF2F1084600F085FB0F2C4FF001050D
:1006200008D838B94FF0FF3021460022002500F0ED
:1006300037F87460284670BD82B041F21800C4F2E9
:1006400002000168022241F001010160016801F02D
:10065000010101910199416841F080514160406878
:1006600000F08050009000980420C4F2010001685E
:1006700062F31A61016002B070470000002848BFB1
:10068000704700F01F01012202FA01F11C2202EA68
:10069000D0004EF20012CEF20002815070470000EE
:1006A00010B54EF60C5CCEF2000CDCF80030C3F353
:1006B000022E8EF00704042C28BF0424BEF103038D
:1006C0004FF0FF3E0EFA04F438BF0023A1439940D7
:1006D0000EFA03F39A43114300F00F0200F1604356
:1006E0000901043A03F564436244002848BF02F15B
:1006F0000C03197010BD00004EF60C51CEF2000133
:100700000A684FF6FF031A4060F30A2242F0806045
:1007100040F0FD7008607047002804BF012070475A
:100720002DE9F04381B042F20008C4F20208044609
:10073000D8F800000D4600F0070081420CD9D8F827
:10074000000020F007002843C8F80000D8F8000097
:1007500000F00700A8426CD1206841F2040981072B
:10076000C4F2020917D5410705D5D9F8001041F4A4
:10077000E061C9F80010010705D5D9F8001041F46F
:100780006051C9F80010D9F80010A26821F0F001FA
:100790001143C9F80010C00742D1D8F8000000F09A
:1007A000070085420CD2D8F8000020F0070028434B
:1007B000C8F80000D8F8000000F00700A84238D1BF
:1007C0002068410707D5D9F80010E26821F4E061FC
:1007D0001143C9F80010000708D5D9F800002169B5
:1007E00020F4605040EAC100C9F80000D9F80020A8
:1007F00002F00C00082841F20020C0F27A004DD12E
:1008000042F2BE23C2F38341C0F60003595CD20317
:1008100038D440F60010C0F23D0048433EE000BF2F
:10082000606859F8041C022808D0012826D18903E1
:1008300006D4012001B0BDE8F08300BF8901F8D5DE
:10084000D9F8001021F003010843C9F80000FFF7B0
:10085000A7FE064641F28837D9F80000616800F02B
:100860000C00B0EB810F98D0FFF79AFE801BB842C6
:10087000F2D9032001B0BDE8F08300BF8907D8D5C5
:10088000DEE700BFD9F8002042F2BC23C2F34042A9
:10089000C0F600039A5C4843B0FBF2F0D9F80010B0
:1008A00042F2A422C1F30311C0F60002515C40F2EF
:1008B000080220FA01F140F20400C2F200000068D0
:1008C000C2F200021160FFF793FE002001B0BDE804
:1008D000F083000040F2080041F20401C2F200007F
:1008E000C4F202010068096842F2B422C1F3022195
:1008F000C0F60002515CC8407047000040F208009A
:1009000041F20401C2F20000C4F202010068096869
:1009100042F2B422C1F3C221C0F60002515CC840C9
:1009200070470000002804BF012070472DE9F04106
:1009300082B00446007841F20006C007C4F2020605
:100940000CD0706800F00C00042840F08180306802
:10095000800303D56068002800F046812078800776
:100960001BD5706810F00C0F09D0706800F00C00F7
:10097000082840F087807068C00300F183803068E9
:10098000800703D52069012840F02E813068616915
:1009900020F0F80040EAC10030602078000713D44E
:1009A000207840072CD4E569002D00F0188170688C
:1009B00000F00C00082840F0A780012D40F00481D1
:1009C000012002B0BDE8F081A069002800F0848019
:1009D0000020C4F242200121C0F88014FFF7E0FD9E
:1009E000054600BF706A800700F1B280FFF7D8FDAE
:1009F000401B0228F6D9032002B0BDE8F08100BFF9
:100A0000F0695FEAC00808D4F06940F08050F061F6
:100A1000F06900F080500090009847F20007C4F29F
:100A200000073868C00549D4386840F480703860E1
:100A3000FFF7B6FD054600BF3868C0053ED4FFF796
:100A4000AFFD401B6428F7D9032002B0BDE8F08158
:100A5000706800F00C00082803D17068C0033FF5EF
:100A600076AF61683068002900F00C81B1F5A02FE5
:100A700000F00081B1F5803F40F01A8140F48030F1
:100A80001CE100BF2069002840F20000C4F24220AF
:100A900000F0888001210160FFF782FD054600BF5C
:100AA000306880073FF572AFFFF77AFD401B0228E0
:100AB000F6D9032002B0BDE8F08100BFE168306ADA
:100AC000002900F09D80052900F09280012940F066
:100AD000AF8040F00100B1E00020C4F242200021CC
:100AE000C0F88014FFF75CFD054600BF706A800700
:100AF0007FF556AFFFF754FD401B0228F6D90320BF
:100B000002B0BDE8F08100BF0027C4F242270020F8
:100B10003866FFF745FD022D05460DD1306880018E
:100B200040F1DE80FFF73CFD401B02284FF0030040
:100B3000F4D902B0BDE8F081306880014FD5FFF7ED
:100B40002FFD401B02284FF00300F5D9F1E700BF4D
:100B500040F20800C2F20000006844F6D351C1F22E
:100B60006201A0FB0101480A019000BF00BF01988B
:100B7000411E002801913FF413AF00BF0198411EB0
:100B8000002801913FF40CAF00BF0198411E0028DE
:100B900001913FF405AF00BF0198411E002801916B
:100BA000E4D1FDE600210160FFF7FAFC054600BF35
:100BB000306880077FF5F1AEFFF7F2FC401B02289A
:100BC0004FF00300F4D9B4E77068216A00F4803272
:100BD0008A4209D1616A00F47010884204D1002071
:100BE00002B0BDE8F08100BF012002B0BDE8F08195
:100BF00040F004003062306A40F001001EE000BFA7
:100C000020F001003062306A20F004003062FFF70B
:100C1000C7FC054641F28837306A800720D5FFF7C8
:100C2000BFFC401BB8424FF00300F5D981E700BF7D
:100C300020F001003062306A20F004003062FFF7DB
:100C4000AFFC054641F28837306A800708D4FFF7C9
:100C5000A7FC401BB842F7D9032002B0BDE8F081E1
:100C6000B8F1000F3FF59FAEF06920F08050F061C1
:100C700099E600BF40F480203060306840F4803056
:100C80001CE000BF20F480303060306820F4802009
:100C90003060FFF785FC0546306880037FF55EAE67
:100CA000FFF77EFC401B64284FF00300F4D940E7B7
:100CB00020F480303060306820F480203060FFF70E
:100CC0006FFC0546306880033FF548AEFFF768FCCF
:100CD000401B6428F6D9032002B0BDE8F08100BFB4
:100CE000206AB0F5803F05D17168A26821F4003117
:100CF000114371607168626A21F4741111430843F1
:100D0000706001203866FFF74BFC044630688001B4
:100D10003FF565AFFFF744FC001B02284FF00300CE
:100D2000F4D906E7411E0020B0EB116F1CBF012073
:100D300070474EF21002CEF2000251604EF623517F
:100D4000CEF20001F0230B70072190601160704714
:100D500090F83C20012A04BF02207047B0B501F191
:100D600008053CCDD1E900CE23F47C5322F4705227
:100D70001A432EF4F0431A432CF4E0431A4324F4AC
:100D8000C0431A432A43C96922F4804203681143CD
:100D90005964002180F83C100020B0BD90F83C2040
:100DA000012A4FF0020236D010B580F83D200268CB
:100DB000D2F804E0D2F808C00C682EF07003234388
:100DC00040F2FF74C4F20004A24253600ADCB2F1A4
:100DD000804F13D040F20043C4F200039A420DD07A
:100DE00011E000BF42F60043C4F201039A4205D06D
:100DF00040F60003C4F200039A4204D149682CF083
:100E00008003194391600121002280F83D1080F891
:100E10003C20BDE81040104670470000002804BF89
:100E20000120704710B590F83D1031B9002180F8CD
:100E30003C10044600F070F82046022180F83D1076
:100E4000016840F2FF740B68C4F2000442F6004CE3
:100E5000A142C4F2010C15DCB1F1804F1AD040F26E
:100E60000042C4F20002914214D0A14218DCB1F158
:100E7000804F1DD040F20042C4F20002914217D0D0
:100E80001AE000BF614505D040F60002C4F200023E
:100E90009142EAD1826823F070031343A142E6DD58
:100EA000614505D040F60002C4F20002914203D130
:100EB000026923F440731343846923F08002D0F85D
:100EC00004E0C368224361450A60CB62C1F828E0B0
:100ED00002D14269CCF8302001224A610B69DB075C
:100EE00003D00B6923F001030B6180F8462080F8E2
:100EF0003E2080F83F2080F8402080F8412080F894
:100F0000422080F8432080F8442080F8452080F873
:100F10003D20002010BD0000006842F60041C4F2F0
:100F20000101884218BF704781B041F21800C4F235
:100F30000200016841F400610160006800F4006093
:100F40000090009801B0704790F83C20012A4FF0C3
:100F500002026CD080B580F83D20D0F800C04FF67A
:100F60007772DCF8083023EA0202CCF808200B681C
:100F70004F2B29DC1F2B45DD202B46D0302B44D0B6
:100F8000402B40F0AF80D1F804E0C968DCF8203095
:100F9000DCF8202022F00102CCF82020DCF8182018
:100FA00022F0F00242EA011123F00A0242EA0E02A4
:100FB000CCF81810CCF82020DCF8081041F04701DC
:100FC00021F0300128E000BF6F2B33DDB3F5005F67
:100FD00074D0B3F5805F21D0702B40F08380D1E9CD
:100FE00001E3C968DCF8082043EA0E0322F47F42DB
:100FF00043EA01211143CCF80810DCF8081041F055
:10100000770109E00BB1102B6CD1DCF8081021F04E
:101010007001194341F00701CCF8081000220121AA
:1010200080F83D10002180F83C10BDE8804010465B
:10103000704700BF502B21D0602B53D1D1F804E072
:10104000C968DCF82030DCF8202022F01002CCF84F
:101050002020DCF8182022F4704242EA013123F00B
:10106000A00242EA0E12CCF81810CCF82020DCF8CE
:10107000081041F0670121F01001CDE7D1F804E03C
:10108000C968DCF82030DCF8202022F00102CCF81E
:101090002020DCF8182022F0F00242EA011123F0AF
:1010A0000A0242EA0E02CCF81810CCF82020DCF834
:1010B000081041F0570121F02001ADE7D1E901E32B
:1010C000C968DCF8082043EA0E0322F47F4243EAB1
:1010D00001211143CCF80810DCF8081041F48041DC
:1010E0009AE700BF01229AE780B586B0014640F634
:1010F0000000C4F20100096800F5105291424FF05F
:101100000001CDE90411CDE9021101D006B080BD86
:1011100041F21801C4F202010A6842F004020A60B6
:10112000096801F00401019101994FF440710291A5
:1011300002210391059102A9FFF71EF906B080BDB7
:1011400090F83C30012B04BF022070474FEAB202F6
:10115000032A00F2F1802DE9F043DFE802F003A555
:101160003B7500BF036842F600461D6A1A6AC4F266
:10117000010622F001021A621A465C6852F818CF82
:10118000B3428E68D1F800E025F0020545EA060575
:101190000CD1CE68D1E9057824F4407425F00C0513
:1011A00026F004063C43354344EA08042CF0730758
:1011B00047EA0E075C609F614F6809695F631D62C3
:1011C0009F6947F008079F619F6927F004079F61A7
:1011D000A6E000BF036842F600461D6A1A6AC4F220
:1011E000010622F480721A621A46D3F804C052F83B
:1011F0001CEFB3428E680C6825F4007545EA06259D
:101200000FD1CE68D1E90598360240F2FF4725F4A8
:101210004065BE4335432CF4405748EA090647EA87
:10122000061C2EF073072743C3F804C0DF614F6824
:101230000969DF631D62DF6947F00807DF61DF6965
:1012400027F00407DF616BE0036842F60047D3F83C
:1012500020C01A6AC4F2010722F480521A621A46A8
:101260005C6852F81C5FD1F800E08E68BB4204D184
:101270004F6924F4804444EA87142CF4005747EA69
:10128000063725F4E64646EA0E265C60DE614E68C7
:1012900009691E641F62DF6947F40067DF61DF6967
:1012A00027F48067DF613AE0036842F600461D6A72
:1012B0001A6AC4F2010622F010021A621A46D3F822
:1012C00004C052F8184FB3428E68D1F800E025F000
:1012D000200545EA06150FD1CE68D1E905986FF0D3
:1012E000400725F0C00507EA061635432CF4406791
:1012F00048EA090647EA860C24F4E64444EA0E2745
:10130000C3F804C09F614F6809699F631D629F69AC
:1013100047F400679F619F6927F480679F61090216
:101320001368194311600021BDE8F043002280F8E2
:101330003C200846704700BF0121002280F83C2075
:1013400008467047002804BF0120704710B590F888
:101350003D1031B9002180F83C10044600F070F8CF
:101360002046022180F83D10016840F2FF740B68AE
:10137000C4F2000442F6004CA142C4F2010C15DC98
:10138000B1F1804F1AD040F20042C4F20002914203
:1013900014D0A14218DCB1F1804F1DD040F20042C0
:1013A000C4F20002914217D01AE000BF614505D097
:1013B00040F60002C4F200029142EAD1826823F0B2
:1013C00070031343A142E6DD614505D040F60002FB
:1013D000C4F20002914203D1026923F44073134323
:1013E000846923F08002D0F804E0C3682243614599
:1013F0000A60CB62C1F828E002D14269CCF8302003
:1014000001224A610B69DB0703D00B6923F001035A
:101410000B6180F8462080F83E2080F83F2080F85D
:10142000402080F8412080F8422080F8432080F856
:10143000442080F8452080F83D20002010BD0000A9
:1014400070470000C1B1042908D0082914BF412207
:101450004022825C012A05D016E000BF3F22825C58
:10146000012A11D10222082910D0042914BF80F8C2
:10147000412080F83F200BE090F83E20012A03D164
:10148000022280F83E2003E00120704780F84020CF
:10149000006801F01F010122036A8A4023EA020169
:1014A0000162036A42F64441C4F201011A43A1F108
:1014B0004403984202620FD040F2FF71C4F200016F
:1014C000884213DCB0F1804F1CD040F20041C4F2DE
:1014D0000001884216D01CE00A6842F400420A600B
:1014E00040F2FF71C4F200018842EBDD42F6004198
:1014F000C4F20101884205D040F60001C4F20001A7
:10150000884206D1816801F00701062904BF002046
:101510007047016841F00101016000207047000040
:101520007047000070470000B0B582B001680A68DB
:10153000CC684B6902F02F05202D04F0200505D161
:1015400025B102B0BDE8B04000F0B6BB5FEA027C56
:101550001EBF03F0010E04F4907313EB0E0341D190
:10156000036BD50618D5012B16D114F0100313D038
:10157000002201920A6801924A680192019A49691F
:1015800049064BD4818DC28DC38D002B18BF91426B
:1015900040F0F48102B0B0BD13062DD514F08003E5
:1015A0002AD090F84120212AF4D18268B2F5805FD8
:1015B00003D10269002A00F06782026A531C0362A9
:1015C00012784A60C28C013A1304C284E2D1C8681E
:1015D00020F08000C860C86840F04000C86002B0D9
:1015E000B0BD00BFD30718BF14F4807340F0D080A3
:1015F000530700F1D380D8E05206CBD514F0400257
:10160000C8D0CA6822F04002CA60202180F8411088
:1016100002B0BDE8B04000F039BB00BFC16B0A6842
:10162000526893B2002BB5D0858DAB42B2D2C28541
:101630008969202900F0A180016851E8031F026830
:1016400021F4807142E80313DBB1016851E8031F04
:10165000026821F4807142E8031393B1016851E8F4
:10166000031F026821F4807142E803134BB1016843
:1016700051E8031F026821F4807142E80313002B34
:10168000DAD1016851E8051F026821F0010142E842
:101690000513C3B3016851E8051F026821F0010179
:1016A00042E805137BB3016851E8051F026821F089
:1016B000010142E8051333B3016851E8051F0268D0
:1016C00021F0010142E80513002BDAD11BE000BF35
:1016D000016851E8051F026821F0400142E8051346
:1016E000DBB1016851E8051F026821F0400142E8C2
:1016F000051393B1016851E8051F026821F040010C
:1017000042E805134BB1016851E8051F026821F05A
:10171000400142E80513002BDAD1202180F8421065
:1017200000210163016851E8031F026821F01001E4
:1017300042E80313DBB1016851E8031F026821F09E
:10174000100142E8031393B1016851E8031F0268D6
:1017500021F0100142E803134BB1016851E8031F67
:10176000026821F0100142E80313002BDAD1C16BAB
:1017700004460846FEF780FD204602214163818D24
:10178000C28D891A89B202B0BDE8B040FFF7C8BE69
:10179000436C43F001034364530706D5BEF1000FC9
:1017A00003D0436C43F002034364930706D5BEF1B4
:1017B000000F03D0436C43F004034364BCF1000FFB
:1017C00006D55EEA050303D0436C43F00803436487
:1017D000436C002B3FF4DEAE920605D525B10446DE
:1017E00000F06AFA216820464969426C01F0400124
:1017F00002F00802891800F0B98000BF016851E8C2
:10180000031F026821F4907142E80313BBB301681F
:1018100051E8031F026821F4907142E8031373B387
:10182000016851E8031F026821F4907142E8031334
:101830002BB3016851E8031F026821F4907142E85C
:101840000313002BDAD11AE0016851E8051F026882
:1018500021F0010142E80513DBB1016851E8051FE1
:10186000026821F0010142E8051393B1016851E8D3
:10187000051F026821F0010142E805134BB1016820
:1018800051E8051F026821F0010142E80513002B11
:10189000DAD1016B012924D1016851E8031F0268E4
:1018A00021F0100142E80313DBB1016851E8031F86
:1018B000026821F0100142E8031393B1016851E876
:1018C000031F026821F0100142E803134BB10168C5
:1018D00051E8031F026821F0100142E80313002BB6
:1018E000DAD1202180F842100021016301684969A2
:1018F000490640F1C380016851E8051F026821F0E4
:10190000400142E80513DBB1016851E8051F026898
:1019100021F0400142E8051393B1016851E8051F29
:10192000026821F0400142E805134BB1016851E81B
:10193000051F026821F0400142E80513002BDAD1AF
:10194000C16B002900F09A8041F6AD42C0F600025A
:10195000044608464A63FEF7B3FC00283FF41AAE7B
:10196000E06B416B02B0BDE8B04008470446FFF7AA
:10197000D9FD0020606402B0B0BD00BF891A00BF6D
:10198000026852E8032F036822F4907243E80325AB
:10199000BDB3026852E8032F036822F4907243E853
:1019A000032575B3026852E8032F036822F490728E
:1019B00043E803252DB3026852E8032F036822F49D
:1019C000907243E80325002DDAD11AE0026852E84C
:1019D000052F036822F0010243E80525DDB1026806
:1019E00052E8052F036822F0010243E8052595B16E
:1019F000026852E8052F036822F0010243E805253A
:101A00004DB1026852E8052F036822F0010243E855
:101A10000525002DDAD1202280F842200022026321
:101A2000026852E8032F036822F0100243E80325FE
:101A3000DDB1026852E8032F036822F0100243E888
:101A4000032595B1026852E8032F036822F01002C3
:101A500043E803254DB1026852E8032F036822F0E2
:101A6000100243E80325002DDAD1022289B2426335
:101A700002B0BDE8B040FFF753BD00BF02B0BDE803
:101A8000B040FFF74FBD00BF026A32F8023B6FF370
:101A90005F234B60026295E5002804BF0120704778
:101AA00010B5044690F8410028B9002084F84000A1
:101AB000204600F063F8242084F841002068D4E92F
:101AC0000212C36823F40053C360036923F4405334
:101AD0001A430261D4E904231143C268194341F255
:101AE0000C639A431143C1604169A26921F44071BA
:101AF000114343F60002C4F201029042416103D057
:101B0000FEF7E8FE02E000BFFEF7F8FED4E900238E
:101B1000192148439900B0FBF1F048F21F5CC5F26F
:101B2000EB1CA0FB0C314FF69C734909C0F6FF7308
:101B300001FB0300322303EB0010A0FB0C03F02099
:101B400000EA531000EB0110C3F343110844906006
:101B50001069202120F490401061506920F02A0083
:101B60005061D06840F40050D0600020606484F878
:101B7000411084F84210606310BD000070B586B05B
:101B800040F60044C4F20104006804F53051002618
:101B900088420596CDE90366029601D006B070BD75
:101BA00041F21800C4F20200016802AD41F4804124
:101BB0000160016801F4804101910199016841F0DF
:101BC000080101600068294600F0080001900198B2
:101BD0004020029002200390032005902046FEF74B
:101BE000CBFB8020CDE90206204629460496FEF76D
:101BF000C3FB0420C4F201000168002241F0E0614F
:101C000041F00401016025200121FEF749FD252056
:101C1000FEF734FD06B070BD90F84230202B07D19E
:101C200000294FF0010318BF002A05D1184670475C
:101C300002231846704700BF0023036381622221FC
:101C40008285C285436480F842100169006819B139
:101C5000C16841F48071C160416941F00101416195
:101C6000C16841F02001C16018467047016840F228
:101C70007000C2F200004269914218BF7047012211
:101C8000411C00F8142BFFF7C7BF0000704700008D
:101C9000FEE70000FEE70000FEE7000070470000DE
:101CA00070470000FEF782BC70470000406A0021C8
:101CB000C185C184FFF736BC81B090F8421022295B
:101CC00021D183680246B3F5805F09D152F8281FFD
:101CD00052F8183C002B63D003685B680AE000BF31
:101CE00052F8281F13B90369002BF5D003685B680D
:101CF00003F07F030B70116801311160C18D013950
:101D00000A04C18502D001B0704700BF0168CA68EB
:101D100022F02002CA60CA6822F48072CA604A694E
:101D200022F001024A61202180F842100021416323
:101D3000026B012A3CD10163016851E8031F02686C
:101D400021F0100142E80313DBB1016851E8031FE1
:101D5000026821F0100142E8031393B1016851E8D1
:101D6000031F026821F0100142E803134BB1016820
:101D700051E8031F026821F0100142E80313002B11
:101D8000DAD101680A68D20606D5002200920A68F4
:101D90000092496800910099818D01B0FFF7C0BBA6
:101DA000026852686FF35F2221F8022B8162A5E777
:101DB00001B0FFF75BBF000040F28400C2F20000F8
:101DC000FFF7B2BBFEE70000B0B5042888BFB0BD86
:101DD0000C46DFE800F003412739150040F2CC043F
:101DE000C2F2000420460021002200F0F9F904F1BB
:101DF0001C0000210022BDE8B04000F0F1B900BF96
:101E000040F2CC05C2F2000505F11C0000210022C1
:101E100000F0E6F9284601212246BDE8B04000F076
:101E2000DFB900BF40F2CC05C2F20005284602210E
:101E3000224600F0D5F905F11C0002212246BDE83A
:101E4000B04000F0CDB900BF40F2CC05C2F20005B1
:101E500028460021002206E040F2CC05C2F200052F
:101E600028460121224600F0BBF905F11C000121A2
:101E70002246BDE8B04000F0B3B9000070B584B0B0
:101E800040F2CC0540F60046044600204FF40051D5
:101E9000C2F20005C4F201060091029028463146C4
:101EA0004FF480423346019400F0D2F94FF4805051
:101EB000CDE9000405F11C044FF0040C2046314626
:101EC0004FF400423346CDF808C000F0C1F928466F
:101ED0000021002200F084F920460021002204B0F5
:101EE000BDE8704000F07CB998B0FEF76DFB0024AF
:101EF0000120CDE90644CDE9044405901020069068
:101F00004FF4601002250A9001A8CDE90244019522
:101F1000CDE90854FEF706FD20B1EFF3108072B64C
:101F2000FEE700BF0F20CDE90B054FF48060CDE93F
:101F30000E040BA802210D94FEF7EEFB20B1EFF387
:101F4000108072B6FEE700BF002541F21800CDE90F
:101F50000355CDE90155C4F20200016840F6004482
:101F600041F0200101600168C4F2010401F0200188
:101F70000B910B990168002241F008010160016892
:101F80004FF4704601F008010B910B99016841F084
:101F90000401016000684FF4704100F004000B90F0
:101FA0000B982046FEF7F6FA0120CDE90205022043
:101FB000049001A920460196FEF7DEF940F20410D4
:101FC00004F50051C2F2000040F2E7331795CDE965
:101FD0001555CDE9125507953F2280E82600C0E946
:101FE0000335C0E90555FEF719FF28B1EFF310805E
:101FF00072B600BFFEE700BF4FF48050149040F26D
:102000000410C2F2000014A9FEF79EFF20B1EFF306
:10201000108072B6FEE700BF40F20410C2F200006A
:10202000FFF790F920B1EFF3108072B6FEE700BF22
:1020300040F20410C2F2000012A9FEF7AFFE28B170
:10204000EFF3108072B600BFFEE700BF60200B9078
:102050000020CDE90C00CDE90E00CDE9100040F2E2
:102060000410C2F200000BA90022FFF769F828B1A2
:10207000EFF3108072B600BFFEE700BF40F204101D
:10208000C2F200000BA90422FFF75AF820B1EFF3C7
:10209000108072B6FEE700BF4FF40050069040F289
:1020A00004100026C2F2000001A90596CDE90366DE
:1020B000CDE901660896FEF74BFE28B1EFF31080DC
:1020C00072B600BFFEE700BF40F20410C2F200008B
:1020D000FFF70AF840F27005C2F2000504F530512E
:1020E000284640F8141F4FF416510C22C0E901167F
:1020F000C0E90366C0E90526C661FFF7CDFC28B13B
:10210000EFF3108072B600BFFEE700BF40F204108C
:10211000C2F20000FFF7B2FE05F11400691C0122B3
:10212000FFF77AFD4FF62A6840F20C07CFF6FF78EA
:10213000C2F20007002618E02E7020464FF48041BE
:10214000FEF722FA686020464FF40051FEF71CFAB1
:10215000A86020464FF40041FEF716FAE8602046DA
:102160004FF48051FEF710FA286128780028E4D057
:102170006878A0F1420111290AD8DFE801F01309BB
:1021800009091F0909090909190909090909252B5B
:10219000A0F1300109299EBF00EB800008EB400050
:1021A0003860C9E739780220FFF70EFEC4E700BFA8
:1021B00039780420FFF708FEBEE700BF3978012018
:1021C000FFF702FEB8E700BF39780320FFF7FCFDF8
:1021D000B2E700BF00200021FFF7F6FDACE70000EA
:1021E000B0B515460229044620D0012914D0002993
:1021F00018BFB0BD2068A1880022FEF7CBF9A06807
:10220000A1890022FEF7C6F92069A18A0022BDE853
:10221000B04000F033B800BF2068A1880022FEF76C
:10222000B9F9A068A189012208E000BF2068A1884F
:102230000122FEF7AFF9A068A1890022FEF7AAF9F2
:102240002069A18AEAB2BDE8B04000F017B80000EA
:1022500010B58446DDF810E0DDE90240ACF804205A
:10226000CCF80010ACF80C40CCF808307146CCE942
:10227000040EBDE81040FFF7E5B8000000684FEA23
:10228000B101C36A032988BF70475A4348F21F53FC
:10229000C5F2EB13A2FB0323C3F34F1200EB810043
:1022A00042637047000000000000000001020304C8
:1022B00006070809000000000102030401020203EE
:1022C0000405060708090A0B0C0D0E0F101000007C
:1022D000F02200080000002010000000500100085B
:1022E00000230008100000204007000070010008D3
:1022F000010000001000000000127A000A00000037
:04000005080000ED02
:00000001FF
